{
    "contractName": "Lottery",
    "abi": [
        {
            "inputs": [],
            "stateMutability": "nonpayable",
            "type": "constructor"
        },
        {
            "inputs": [],
            "name": "enter",
            "outputs": [],
            "stateMutability": "payable",
            "type": "function"
        },
        {
            "inputs": [],
            "name": "getBalance",
            "outputs": [
                {
                    "internalType": "uint256",
                    "name": "",
                    "type": "uint256"
                }
            ],
            "stateMutability": "view",
            "type": "function"
        },
        {
            "inputs": [],
            "name": "getPlayers",
            "outputs": [
                {
                    "internalType": "address payable[]",
                    "name": "",
                    "type": "address[]"
                }
            ],
            "stateMutability": "view",
            "type": "function"
        },
        {
            "inputs": [],
            "name": "getRandomNumber",
            "outputs": [
                {
                    "internalType": "bytes32",
                    "name": "requestId",
                    "type": "bytes32"
                }
            ],
            "stateMutability": "nonpayable",
            "type": "function"
        },
        {
            "inputs": [
                {
                    "internalType": "uint256",
                    "name": "lottery",
                    "type": "uint256"
                }
            ],
            "name": "getWinnerByLottery",
            "outputs": [
                {
                    "internalType": "address payable",
                    "name": "",
                    "type": "address"
                }
            ],
            "stateMutability": "view",
            "type": "function"
        },
        {
            "inputs": [
                {
                    "internalType": "uint256",
                    "name": "",
                    "type": "uint256"
                }
            ],
            "name": "lotteryHistory",
            "outputs": [
                {
                    "internalType": "address payable",
                    "name": "",
                    "type": "address"
                }
            ],
            "stateMutability": "view",
            "type": "function"
        },
        {
            "inputs": [],
            "name": "lotteryId",
            "outputs": [
                {
                    "internalType": "uint256",
                    "name": "",
                    "type": "uint256"
                }
            ],
            "stateMutability": "view",
            "type": "function"
        },
        {
            "inputs": [],
            "name": "owner",
            "outputs": [
                {
                    "internalType": "address",
                    "name": "",
                    "type": "address"
                }
            ],
            "stateMutability": "view",
            "type": "function"
        },
        {
            "inputs": [],
            "name": "payWinner",
            "outputs": [],
            "stateMutability": "nonpayable",
            "type": "function"
        },
        {
            "inputs": [],
            "name": "pickWinner",
            "outputs": [],
            "stateMutability": "nonpayable",
            "type": "function"
        },
        {
            "inputs": [
                {
                    "internalType": "uint256",
                    "name": "",
                    "type": "uint256"
                }
            ],
            "name": "players",
            "outputs": [
                {
                    "internalType": "address payable",
                    "name": "",
                    "type": "address"
                }
            ],
            "stateMutability": "view",
            "type": "function"
        },
        {
            "inputs": [],
            "name": "randomResult",
            "outputs": [
                {
                    "internalType": "uint256",
                    "name": "",
                    "type": "uint256"
                }
            ],
            "stateMutability": "view",
            "type": "function"
        },
        {
            "inputs": [
                {
                    "internalType": "bytes32",
                    "name": "requestId",
                    "type": "bytes32"
                },
                {
                    "internalType": "uint256",
                    "name": "randomness",
                    "type": "uint256"
                }
            ],
            "name": "rawFulfillRandomness",
            "outputs": [],
            "stateMutability": "nonpayable",
            "type": "function"
        }
    ],
    "bytecode": "60c060405234801561001057600080fd5b5073b3dccb4cf7a26f6cf6b120cf5a73875b7bbc655b60a0527301be23585060835e02b77ef475b0cc51aa1e07096080527f2ed0feb3e7fd2022120aa84fab1945545a9f2ffc9076fd6156fa96eaff4c131160055567016345785d8a0000600655600180546001600160a01b0319163317815560035560805160a0516109b46100b9600039600081816102f3015261060801526000818161047b01526105d901526109b46000f3fe6080604052600436106100c25760003560e01c80638da5cb5b1161007f578063dbdff2c111610059578063dbdff2c114610211578063e580f47b14610226578063e97dcb621461023c578063f71d96cb1461024457600080fd5b80638da5cb5b146101bc57806394985ddd146101dc578063be71248a146101fc57600080fd5b806312065fe0146100c7578063281d098d146100e957806342619f66146101375780635d495aea1461014d5780636d6fe230146101645780638b5b9ccc1461019a575b600080fd5b3480156100d357600080fd5b50475b6040519081526020015b60405180910390f35b3480156100f557600080fd5b5061011f6101043660046107c9565b6000908152600460205260409020546001600160a01b031690565b6040516001600160a01b0390911681526020016100e0565b34801561014357600080fd5b506100d660075481565b34801561015957600080fd5b50610162610264565b005b34801561017057600080fd5b5061011f61017f3660046107c9565b6004602052600090815260409020546001600160a01b031681565b3480156101a657600080fd5b506101af610286565b6040516100e091906107e2565b3480156101c857600080fd5b5060015461011f906001600160a01b031681565b3480156101e857600080fd5b506101626101f736600461082f565b6102e8565b34801561020857600080fd5b50610162610373565b34801561021d57600080fd5b506100d6610457565b34801561023257600080fd5b506100d660035481565b610162610547565b34801561025057600080fd5b5061011f61025f3660046107c9565b61059e565b6001546001600160a01b0316331461027b57600080fd5b610283610457565b50565b606060028054806020026020016040519081016040528092919081815260200182805480156102de57602002820191906000526020600020905b81546001600160a01b031681526001909101906020018083116102c0575b5050505050905090565b336001600160a01b037f000000000000000000000000000000000000000000000000000000000000000016146103655760405162461bcd60e51b815260206004820152601f60248201527f4f6e6c7920565246436f6f7264696e61746f722063616e2066756c66696c6c0060448201526064015b60405180910390fd5b61036f82826105c8565b5050565b60025460075460009161038591610851565b90506002818154811061039a5761039a610873565b60009182526020822001546040516001600160a01b03909116914780156108fc02929091818181858888f193505050501580156103db573d6000803e3d6000fd5b50600281815481106103ef576103ef610873565b600091825260208083209091015460038054845260049092526040832080546001600160a01b0319166001600160a01b039092169190911790558054916104358361089f565b9091555050604080516000815260208101918290525161036f9160029161074f565b6006546040516370a0823160e01b8152306004820152600091906001600160a01b037f000000000000000000000000000000000000000000000000000000000000000016906370a0823190602401602060405180830381865afa1580156104c2573d6000803e3d6000fd5b505050506040513d601f19601f820116820180604052508101906104e691906108b8565b10156105345760405162461bcd60e51b815260206004820152601b60248201527f4e6f7420656e6f756768204c494e4b20696e20636f6e74726163740000000000604482015260640161035c565b6105426005546006546105d5565b905090565b662386f26fc10000341161055a57600080fd5b600280546001810182556000919091527f405787fa12a823e0f2b7631cc41b3ba8828b3321ca811111fa75cd3aa3bb5ace0180546001600160a01b03191633179055565b600281815481106105ae57600080fd5b6000918252602090912001546001600160a01b0316905081565b600781905561036f610373565b60007f00000000000000000000000000000000000000000000000000000000000000006001600160a01b0316634000aea07f000000000000000000000000000000000000000000000000000000000000000084866000604051602001610645929190918252602082015260400190565b6040516020818303038152906040526040518463ffffffff1660e01b8152600401610672939291906108d1565b6020604051808303816000875af1158015610691573d6000803e3d6000fd5b505050506040513d601f19601f820116820180604052508101906106b5919061093d565b5060008381526020818152604080832054815180840188905280830185905230606082015260808082018390528351808303909101815260a09091019092528151918301919091208684529290915261070f906001610966565b6000858152602081815260409182902092909255805180830187905280820184905281518082038301815260609091019091528051910120949350505050565b8280548282559060005260206000209081019282156107a4579160200282015b828111156107a457825182546001600160a01b0319166001600160a01b0390911617825560209092019160019091019061076f565b506107b09291506107b4565b5090565b5b808211156107b057600081556001016107b5565b6000602082840312156107db57600080fd5b5035919050565b6020808252825182820181905260009190848201906040850190845b818110156108235783516001600160a01b0316835292840192918401916001016107fe565b50909695505050505050565b6000806040838503121561084257600080fd5b50508035926020909101359150565b60008261086e57634e487b7160e01b600052601260045260246000fd5b500690565b634e487b7160e01b600052603260045260246000fd5b634e487b7160e01b600052601160045260246000fd5b6000600182016108b1576108b1610889565b5060010190565b6000602082840312156108ca57600080fd5b5051919050565b60018060a01b038416815260006020848184015260606040840152835180606085015260005b81811015610913578581018301518582016080015282016108f7565b81811115610925576000608083870101525b50601f01601f19169290920160800195945050505050565b60006020828403121561094f57600080fd5b8151801515811461095f57600080fd5b9392505050565b6000821982111561097957610979610889565b50019056fea2646970667358221220f84cfcb057c12f673c763dab10074911915b64a1b46713bf4b95e9bb85e790d464736f6c634300080d0033",
    "sourcePath": "/Users/jiasheng/Documents/GitHub/seyefactory/contracts/Lottery.sol",
    "compiler": {
        "name": "solc",
        "version": "0.8.13+commit.abaa5c0e"
    },
    "functionHashes": {
        "enter()": "e97dcb62",
        "getBalance()": "12065fe0",
        "getPlayers()": "8b5b9ccc",
        "getRandomNumber()": "dbdff2c1",
        "getWinnerByLottery(uint256)": "281d098d",
        "lotteryHistory(uint256)": "6d6fe230",
        "lotteryId()": "e580f47b",
        "owner()": "8da5cb5b",
        "payWinner()": "be71248a",
        "pickWinner()": "5d495aea",
        "players(uint256)": "f71d96cb",
        "randomResult()": "42619f66",
        "rawFulfillRandomness(bytes32,uint256)": "94985ddd"
    },
    "gasEstimates": {
        "creation": {
            "codeDepositCost": "496800",
            "executionCost": "infinite",
            "totalCost": "infinite"
        },
        "external": {
            "enter()": "48679",
            "getBalance()": "173",
            "getPlayers()": "infinite",
            "getRandomNumber()": "infinite",
            "getWinnerByLottery(uint256)": "2500",
            "lotteryHistory(uint256)": "2566",
            "lotteryId()": "2328",
            "owner()": "2360",
            "payWinner()": "infinite",
            "pickWinner()": "infinite",
            "players(uint256)": "4702",
            "randomResult()": "2329",
            "rawFulfillRandomness(bytes32,uint256)": "infinite"
        },
        "internal": {
            "fulfillRandomness(bytes32,uint256)": "infinite"
        }
    }
}